:1000000014C026C025C024C023C022C021C020C0E7
:100010001FC01EC01DC01CC01BC01AC019C018C004
:1000200017C016C015C014C013C011241FBECFE5E1
:10003000D2E0DEBFCDBF10E0A0E6B0E0ECE3F1E03F
:1000400002C005900D92A837B107D9F702D074C04D
:10005000D7CFCF93DF93CDB7DEB7A0970FB6F89485
:10006000DEBF0FBECDBF80E1E0E6F0E0DE0111961D
:1000700001900D928A95E1F7FE01719688E0DF010B
:100080001D928A95E9F788E0E0E7F0E0DE015996F5
:1000900001900D928A95E1F71ABA8FEF87BB14BAD7
:1000A00081BB8BBB85BBAE014F5D5F4F89B323B373
:1000B00090E0982F8827820F911D9C012F70332785
:1000C0003E8B2D8B9C01359527953595279535953C
:1000D0002795359527952F703327388F2F8B292F0C
:1000E000332727FD3A952F7033273C8B2B8B892F95
:1000F00082958F70898B1A8AFE017996BE016F5E98
:100100007F4F8081329688BBDB018D919D91BD012F
:1001100021E030E02C0F3D1F820F931FDC018C91FA
:1001200082BB8FE891E00197F1F700C00000E4176F
:0C013000F50709F4BBCFE5CFF894FFCF32
:10013C003F065B4F666D7D077F6F777C395E79710B
:08014C0007000B000D000E007E
:00000001FF
